{
  "_format": "hh-sol-artifact-1",
  "contractName": "AyoobHaroon_supplychain",
  "sourceName": "contracts/AyoobHaroon_supplychain.sol",
  "abi": [
    {
      "inputs": [],
      "stateMutability": "nonpayable",
      "type": "constructor"
    },
    {
      "anonymous": false,
      "inputs": [
        {
          "indexed": true,
          "internalType": "uint256",
          "name": "productId",
          "type": "uint256"
        },
        {
          "indexed": false,
          "internalType": "string",
          "name": "name",
          "type": "string"
        },
        {
          "indexed": false,
          "internalType": "address",
          "name": "manufacturer",
          "type": "address"
        }
      ],
      "name": "ProductRegistered",
      "type": "event"
    },
    {
      "anonymous": false,
      "inputs": [
        {
          "indexed": true,
          "internalType": "uint256",
          "name": "productId",
          "type": "uint256"
        },
        {
          "indexed": false,
          "internalType": "address",
          "name": "from",
          "type": "address"
        },
        {
          "indexed": false,
          "internalType": "address",
          "name": "to",
          "type": "address"
        },
        {
          "indexed": false,
          "internalType": "enum AyoobHaroon_supplychain.Status",
          "name": "newStatus",
          "type": "uint8"
        }
      ],
      "name": "ProductTransferred",
      "type": "event"
    },
    {
      "anonymous": false,
      "inputs": [
        {
          "indexed": true,
          "internalType": "uint256",
          "name": "productId",
          "type": "uint256"
        },
        {
          "indexed": false,
          "internalType": "enum AyoobHaroon_supplychain.Status",
          "name": "newStatus",
          "type": "uint8"
        }
      ],
      "name": "StatusUpdated",
      "type": "event"
    },
    {
      "anonymous": false,
      "inputs": [
        {
          "indexed": true,
          "internalType": "address",
          "name": "userAddress",
          "type": "address"
        },
        {
          "indexed": false,
          "internalType": "enum AyoobHaroon_supplychain.Role",
          "name": "role",
          "type": "uint8"
        },
        {
          "indexed": false,
          "internalType": "string",
          "name": "name",
          "type": "string"
        }
      ],
      "name": "UserRegistered",
      "type": "event"
    },
    {
      "inputs": [],
      "name": "ROLL_NO",
      "outputs": [
        {
          "internalType": "string",
          "name": "",
          "type": "string"
        }
      ],
      "stateMutability": "view",
      "type": "function"
    },
    {
      "inputs": [],
      "name": "STUDENT_NAME",
      "outputs": [
        {
          "internalType": "string",
          "name": "",
          "type": "string"
        }
      ],
      "stateMutability": "view",
      "type": "function"
    },
    {
      "inputs": [],
      "name": "admin",
      "outputs": [
        {
          "internalType": "address",
          "name": "",
          "type": "address"
        }
      ],
      "stateMutability": "view",
      "type": "function"
    },
    {
      "inputs": [
        {
          "internalType": "uint256",
          "name": "_productId",
          "type": "uint256"
        }
      ],
      "name": "getProduct",
      "outputs": [
        {
          "internalType": "uint256",
          "name": "id",
          "type": "uint256"
        },
        {
          "internalType": "string",
          "name": "name",
          "type": "string"
        },
        {
          "internalType": "string",
          "name": "description",
          "type": "string"
        },
        {
          "internalType": "address",
          "name": "currentOwner",
          "type": "address"
        },
        {
          "internalType": "enum AyoobHaroon_supplychain.Status",
          "name": "status",
          "type": "uint8"
        },
        {
          "internalType": "uint256",
          "name": "timestamp",
          "type": "uint256"
        }
      ],
      "stateMutability": "view",
      "type": "function"
    },
    {
      "inputs": [],
      "name": "getProductCount",
      "outputs": [
        {
          "internalType": "uint256",
          "name": "",
          "type": "uint256"
        }
      ],
      "stateMutability": "view",
      "type": "function"
    },
    {
      "inputs": [
        {
          "internalType": "uint256",
          "name": "_productId",
          "type": "uint256"
        }
      ],
      "name": "getProductHistory",
      "outputs": [
        {
          "components": [
            {
              "internalType": "address",
              "name": "owner",
              "type": "address"
            },
            {
              "internalType": "enum AyoobHaroon_supplychain.Status",
              "name": "status",
              "type": "uint8"
            },
            {
              "internalType": "uint256",
              "name": "timestamp",
              "type": "uint256"
            }
          ],
          "internalType": "struct AyoobHaroon_supplychain.ProductHistory[]",
          "name": "",
          "type": "tuple[]"
        }
      ],
      "stateMutability": "view",
      "type": "function"
    },
    {
      "inputs": [
        {
          "internalType": "enum AyoobHaroon_supplychain.Role",
          "name": "_role",
          "type": "uint8"
        }
      ],
      "name": "getRoleString",
      "outputs": [
        {
          "internalType": "string",
          "name": "",
          "type": "string"
        }
      ],
      "stateMutability": "pure",
      "type": "function"
    },
    {
      "inputs": [
        {
          "internalType": "enum AyoobHaroon_supplychain.Status",
          "name": "_status",
          "type": "uint8"
        }
      ],
      "name": "getStatusString",
      "outputs": [
        {
          "internalType": "string",
          "name": "",
          "type": "string"
        }
      ],
      "stateMutability": "pure",
      "type": "function"
    },
    {
      "inputs": [
        {
          "internalType": "address",
          "name": "_userAddress",
          "type": "address"
        }
      ],
      "name": "getUser",
      "outputs": [
        {
          "internalType": "address",
          "name": "userAddress",
          "type": "address"
        },
        {
          "internalType": "enum AyoobHaroon_supplychain.Role",
          "name": "role",
          "type": "uint8"
        },
        {
          "internalType": "string",
          "name": "name",
          "type": "string"
        },
        {
          "internalType": "bool",
          "name": "isRegistered",
          "type": "bool"
        }
      ],
      "stateMutability": "view",
      "type": "function"
    },
    {
      "inputs": [],
      "name": "productCounter",
      "outputs": [
        {
          "internalType": "uint256",
          "name": "",
          "type": "uint256"
        }
      ],
      "stateMutability": "view",
      "type": "function"
    },
    {
      "inputs": [
        {
          "internalType": "uint256",
          "name": "",
          "type": "uint256"
        },
        {
          "internalType": "uint256",
          "name": "",
          "type": "uint256"
        }
      ],
      "name": "productHistory",
      "outputs": [
        {
          "internalType": "address",
          "name": "owner",
          "type": "address"
        },
        {
          "internalType": "enum AyoobHaroon_supplychain.Status",
          "name": "status",
          "type": "uint8"
        },
        {
          "internalType": "uint256",
          "name": "timestamp",
          "type": "uint256"
        }
      ],
      "stateMutability": "view",
      "type": "function"
    },
    {
      "inputs": [
        {
          "internalType": "uint256",
          "name": "",
          "type": "uint256"
        }
      ],
      "name": "products",
      "outputs": [
        {
          "internalType": "uint256",
          "name": "id",
          "type": "uint256"
        },
        {
          "internalType": "string",
          "name": "name",
          "type": "string"
        },
        {
          "internalType": "string",
          "name": "description",
          "type": "string"
        },
        {
          "internalType": "address",
          "name": "currentOwner",
          "type": "address"
        },
        {
          "internalType": "enum AyoobHaroon_supplychain.Status",
          "name": "status",
          "type": "uint8"
        },
        {
          "internalType": "uint256",
          "name": "timestamp",
          "type": "uint256"
        },
        {
          "internalType": "bool",
          "name": "exists",
          "type": "bool"
        }
      ],
      "stateMutability": "view",
      "type": "function"
    },
    {
      "inputs": [
        {
          "internalType": "uint256",
          "name": "_productId",
          "type": "uint256"
        }
      ],
      "name": "receiveByCustomer",
      "outputs": [],
      "stateMutability": "nonpayable",
      "type": "function"
    },
    {
      "inputs": [
        {
          "internalType": "uint256",
          "name": "_productId",
          "type": "uint256"
        }
      ],
      "name": "receiveByDistributor",
      "outputs": [],
      "stateMutability": "nonpayable",
      "type": "function"
    },
    {
      "inputs": [
        {
          "internalType": "uint256",
          "name": "_productId",
          "type": "uint256"
        }
      ],
      "name": "receiveByRetailer",
      "outputs": [],
      "stateMutability": "nonpayable",
      "type": "function"
    },
    {
      "inputs": [
        {
          "internalType": "string",
          "name": "_name",
          "type": "string"
        },
        {
          "internalType": "string",
          "name": "_description",
          "type": "string"
        }
      ],
      "name": "registerProduct",
      "outputs": [
        {
          "internalType": "uint256",
          "name": "",
          "type": "uint256"
        }
      ],
      "stateMutability": "nonpayable",
      "type": "function"
    },
    {
      "inputs": [
        {
          "internalType": "address",
          "name": "_userAddress",
          "type": "address"
        },
        {
          "internalType": "enum AyoobHaroon_supplychain.Role",
          "name": "_role",
          "type": "uint8"
        },
        {
          "internalType": "string",
          "name": "_name",
          "type": "string"
        }
      ],
      "name": "registerUser",
      "outputs": [],
      "stateMutability": "nonpayable",
      "type": "function"
    },
    {
      "inputs": [
        {
          "internalType": "uint256",
          "name": "_productId",
          "type": "uint256"
        },
        {
          "internalType": "address",
          "name": "_customer",
          "type": "address"
        }
      ],
      "name": "transferToCustomer",
      "outputs": [],
      "stateMutability": "nonpayable",
      "type": "function"
    },
    {
      "inputs": [
        {
          "internalType": "uint256",
          "name": "_productId",
          "type": "uint256"
        },
        {
          "internalType": "address",
          "name": "_distributor",
          "type": "address"
        }
      ],
      "name": "transferToDistributor",
      "outputs": [],
      "stateMutability": "nonpayable",
      "type": "function"
    },
    {
      "inputs": [
        {
          "internalType": "uint256",
          "name": "_productId",
          "type": "uint256"
        },
        {
          "internalType": "address",
          "name": "_retailer",
          "type": "address"
        }
      ],
      "name": "transferToRetailer",
      "outputs": [],
      "stateMutability": "nonpayable",
      "type": "function"
    },
    {
      "inputs": [
        {
          "internalType": "address",
          "name": "",
          "type": "address"
        }
      ],
      "name": "users",
      "outputs": [
        {
          "internalType": "address",
          "name": "userAddress",
          "type": "address"
        },
        {
          "internalType": "enum AyoobHaroon_supplychain.Role",
          "name": "role",
          "type": "uint8"
        },
        {
          "internalType": "string",
          "name": "name",
          "type": "string"
        },
        {
          "internalType": "bool",
          "name": "isRegistered",
          "type": "bool"
        }
      ],
      "stateMutability": "view",
      "type": "function"
    }
  ],
  "bytecode": "0x60806040523480156200001157600080fd5b5060008054336001600160a01b031991821681178355604080516080810182528281526001602080830182815284518086018652601281527120b236b4b71026b0b73ab330b1ba3ab932b960711b8184015284860152606084019290925293865260029093529320835181549384166001600160a01b0391909116908117825591519092909183916001600160a81b03191617600160a01b836004811115620000be57620000be620000fb565b021790555060408201516001820190620000d99082620001b6565b50606091909101516002909101805460ff191691151591909117905562000282565b634e487b7160e01b600052602160045260246000fd5b634e487b7160e01b600052604160045260246000fd5b600181811c908216806200013c57607f821691505b6020821081036200015d57634e487b7160e01b600052602260045260246000fd5b50919050565b601f821115620001b157600081815260208120601f850160051c810160208610156200018c5750805b601f850160051c820191505b81811015620001ad5782815560010162000198565b5050505b505050565b81516001600160401b03811115620001d257620001d262000111565b620001ea81620001e3845462000127565b8462000163565b602080601f831160018114620002225760008415620002095750858301515b600019600386901b1c1916600185901b178555620001ad565b600085815260208120601f198616915b82811015620002535788860151825594840194600190910190840162000232565b5085821015620002725787850151600019600388901b60f8161c191681555b5050505050600190811b01905550565b61238d80620002926000396000f3fe608060405234801561001057600080fd5b50600436106101365760003560e01c80637acc0b20116100b8578063b9db15b41161007c578063b9db15b4146102bc578063baf6430d146102e1578063be133663146102f4578063c508867214610307578063e229f2cb14610332578063f851a4401461034557600080fd5b80637acc0b20146102365780637ea60c961461025c5780638fbd0dcf1461028357806399604f4014610296578063a87430ba146102a957600080fd5b80633f3c0a58116100ff5780633f3c0a58146101c55780634a348da9146101d857806357a096a1146101e05780636f77926b1461020057806372df397e1461022357600080fd5b8062ba51621461013b57806302d82c551461015057806307b10446146101635780631f16653b1461018c5780633a7d2376146101a3575b600080fd5b61014e610149366004611c4b565b610370565b005b61014e61015e366004611c77565b6104c9565b610176610171366004611c90565b61069b565b6040516101839190611cfe565b60405180910390f35b61019560015481565b604051908152602001610183565b6101b66101b1366004611d11565b6108ae565b60405161018393929190611d5d565b6101766101d3366004611d97565b6108fe565b600154610195565b6101f36101ee366004611c77565b610a1b565b6040516101839190611db2565b61021361020e366004611e1d565b610b0b565b6040516101839493929190611e48565b61014e610231366004611c77565b610c3c565b610249610244366004611c77565b610e02565b6040516101839796959493929190611e8a565b610176604051806040016040528060088152602001673230492d3037373760c01b81525081565b610195610291366004611f92565b610f60565b61014e6102a4366004611c4b565b611188565b6102136102b7366004611e1d565b6112d1565b6102cf6102ca366004611c77565b611395565b60405161018396959493929190611ff6565b61014e6102ef366004611c77565b6115b7565b61014e610302366004612052565b611774565b6101766040518060400160405280600c81526020016b20bcb7b7b1102430b937b7b760a11b81525081565b61014e610340366004611c4b565b61199f565b600054610358906001600160a01b031681565b6040516001600160a01b039091168152602001610183565b60038033600090815260026020526040902054600160a01b900460ff16600481111561039e5761039e611d33565b146103c45760405162461bcd60e51b81526004016103bb906120b0565b60405180910390fd5b600083815260036020526040902060050154839060ff166103f75760405162461bcd60e51b81526004016103bb906120db565b6000848152600360208190526040909120015484906001600160a01b031633146104335760405162461bcd60e51b81526004016103bb9061210b565b60046001600160a01b038516600090815260026020526040902054600160a01b900460ff16600481111561046957610469611d33565b146104b65760405162461bcd60e51b815260206004820152601c60248201527f526563697069656e74206d757374206265206120637573746f6d65720000000060448201526064016103bb565b6104c285856005611ae4565b5050505050565b60028033600090815260026020526040902054600160a01b900460ff1660048111156104f7576104f7611d33565b146105145760405162461bcd60e51b81526004016103bb906120b0565b600082815260036020526040902060050154829060ff166105475760405162461bcd60e51b81526004016103bb906120db565b600160008481526003602081905260409091200154600160a01b900460ff16600681111561057757610577611d33565b146105945760405162461bcd60e51b81526004016103bb9061213a565b600083815260036020818152604080842092830180546001600160a81b03199081163360ff60a01b19811691909117600160a11b17909255426004958601819055948452828620835160608101855292835260028386018181529484019690965280546001810182559087529390952081519390940290930180546001600160a01b039093166001600160a01b0319841681178255915193949093928492911617600160a01b83600681111561064c5761064c611d33565b0217905550604082015181600101555050827f2da7b23ca63c1eb969eee5fae4acb98186abecf5358b0354a82a5183ebca6b2a600260405161068e9190612162565b60405180910390a2505050565b606060008260068111156106b1576106b1611d33565b036106de57505060408051808201909152600c81526b13585b9d599858dd1d5c995960a21b602082015290565b60018260068111156106f2576106f2611d33565b0361073057505060408051808201909152601981527f496e205472616e73697420746f204469737472696275746f7200000000000000602082015290565b600282600681111561074457610744611d33565b0361077557505060408051808201909152601081526f2bb4ba34102234b9ba3934b13aba37b960811b602082015290565b600382600681111561078957610789611d33565b036107c057505060408051808201909152601681527524b7102a3930b739b4ba103a37902932ba30b4b632b960511b602082015290565b60048260068111156107d4576107d4611d33565b0361080257505060408051808201909152600d81526c2bb4ba34102932ba30b4b632b960991b602082015290565b600582600681111561081657610816611d33565b0361084d57505060408051808201909152601681527524b7102a3930b739b4ba103a379021bab9ba37b6b2b960511b602082015290565b600682600681111561086157610861611d33565b0361088b57505060408051808201909152600981526811195b1a5d995c995960ba1b602082015290565b50506040805180820190915260078152662ab735b737bbb760c91b602082015290565b600460205281600052604060002081815481106108ca57600080fd5b6000918252602090912060029091020180546001909101546001600160a01b0382169350600160a01b90910460ff16915083565b6060600182600481111561091457610914611d33565b0361094157505060408051808201909152600c81526b26b0b73ab330b1ba3ab932b960a11b602082015290565b600282600481111561095557610955611d33565b0361098157505060408051808201909152600b81526a2234b9ba3934b13aba37b960a91b602082015290565b600382600481111561099557610995611d33565b036109be5750506040805180820190915260088152672932ba30b4b632b960c11b602082015290565b60048260048111156109d2576109d2611d33565b036109fb57505060408051808201909152600881526721bab9ba37b6b2b960c11b602082015290565b50506040805180820190915260048152634e6f6e6560e01b602082015290565b600081815260036020526040902060050154606090829060ff16610a515760405162461bcd60e51b81526004016103bb906120db565b600083815260046020908152604080832080548251818502810185019093528083529193909284015b82821015610afe57600084815260209081902060408051606081019091526002850290910180546001600160a01b03811683529192909190830190600160a01b900460ff166006811115610ad057610ad0611d33565b6006811115610ae157610ae1611d33565b815260200160018201548152505081526020019060010190610a7a565b5050505091505b50919050565b6001600160a01b038181166000908152600260209081526040808320815160808101909252805494851682529293849360609385938493909291830190600160a01b900460ff166004811115610b6357610b63611d33565b6004811115610b7457610b74611d33565b8152602001600182018054610b8890612176565b80601f0160208091040260200160405190810160405280929190818152602001828054610bb490612176565b8015610c015780601f10610bd657610100808354040283529160200191610c01565b820191906000526020600020905b815481529060010190602001808311610be457829003601f168201915b50505091835250506002919091015460ff16151560209182015281519082015160408301516060909301519199909850919650945092505050565b60048033600090815260026020526040902054600160a01b900460ff166004811115610c6a57610c6a611d33565b14610c875760405162461bcd60e51b81526004016103bb906120b0565b600082815260036020526040902060050154829060ff16610cba5760405162461bcd60e51b81526004016103bb906120db565b600560008481526003602081905260409091200154600160a01b900460ff166006811115610cea57610cea611d33565b14610d075760405162461bcd60e51b81526004016103bb9061213a565b600083815260036020818152604080842092830180546001600160a81b03199081163360ff60a01b19811691909117600360a11b179092554260049586018190559484528286208351606081018552928352600683860181815294840196909652805460018101825590875293909520815160029094020180546001600160a01b039094166001600160a01b03198516811782559251919590949193859391161790600160a01b908490811115610dc057610dc0611d33565b0217905550604082015181600101555050827f2da7b23ca63c1eb969eee5fae4acb98186abecf5358b0354a82a5183ebca6b2a600660405161068e9190612162565b60036020526000908152604090208054600182018054919291610e2490612176565b80601f0160208091040260200160405190810160405280929190818152602001828054610e5090612176565b8015610e9d5780601f10610e7257610100808354040283529160200191610e9d565b820191906000526020600020905b815481529060010190602001808311610e8057829003601f168201915b505050505090806002018054610eb290612176565b80601f0160208091040260200160405190810160405280929190818152602001828054610ede90612176565b8015610f2b5780601f10610f0057610100808354040283529160200191610f2b565b820191906000526020600020905b815481529060010190602001808311610f0e57829003601f168201915b5050506003840154600485015460059095015493946001600160a01b0382169460ff600160a01b909304831694509092501687565b600060018033600090815260026020526040902054600160a01b900460ff166004811115610f9057610f90611d33565b14610fad5760405162461bcd60e51b81526004016103bb906120b0565b60018054906000610fbd836121aa565b9091555050600180546040805160e08101825282815260208082018981528284018990523360608401526000608084018190524260a085015260c08401879052858152600390925292902081518155915192939092908201906110209082612220565b50604082015160028201906110359082612220565b5060608201516003820180546001600160a01b039092166001600160a01b03198316811782556080850151926001600160a81b03191617600160a01b83600681111561108357611083611d33565b021790555060a082015160048281019190915560c0909201516005909101805460ff191691151591909117905560008281526020918252604080822081516060810183523381528085018481524293820193909352815460018101835591845293909220835160029093020180546001600160a01b039093166001600160a01b031984168117825591519092909183916001600160a81b03191617600160a01b83600681111561113557611135611d33565b0217905550604082015181600101555050807fd810998a0248808a33b20218e71759cb2ec1a182b398350ad606d742587c012c86336040516111789291906122e0565b60405180910390a2949350505050565b60028033600090815260026020526040902054600160a01b900460ff1660048111156111b6576111b6611d33565b146111d35760405162461bcd60e51b81526004016103bb906120b0565b600083815260036020526040902060050154839060ff166112065760405162461bcd60e51b81526004016103bb906120db565b6000848152600360208190526040909120015484906001600160a01b031633146112425760405162461bcd60e51b81526004016103bb9061210b565b60036001600160a01b038516600090815260026020526040902054600160a01b900460ff16600481111561127857611278611d33565b146112c55760405162461bcd60e51b815260206004820152601c60248201527f526563697069656e74206d75737420626520612072657461696c65720000000060448201526064016103bb565b6104c285856003611ae4565b600260205260009081526040902080546001820180546001600160a01b03831693600160a01b90930460ff1692919061130990612176565b80601f016020809104026020016040519081016040528092919081815260200182805461133590612176565b80156113825780601f1061135757610100808354040283529160200191611382565b820191906000526020600020905b81548152906001019060200180831161136557829003601f168201915b5050506002909301549192505060ff1684565b6000818152600360205260408120600501546060908190839081908190879060ff166113d35760405162461bcd60e51b81526004016103bb906120db565b6000600360008a81526020019081526020016000206040518060e00160405290816000820154815260200160018201805461140d90612176565b80601f016020809104026020016040519081016040528092919081815260200182805461143990612176565b80156114865780601f1061145b57610100808354040283529160200191611486565b820191906000526020600020905b81548152906001019060200180831161146957829003601f168201915b5050505050815260200160028201805461149f90612176565b80601f01602080910402602001604051908101604052809291908181526020018280546114cb90612176565b80156115185780601f106114ed57610100808354040283529160200191611518565b820191906000526020600020905b8154815290600101906020018083116114fb57829003601f168201915b505050918352505060038201546001600160a01b0381166020830152604090910190600160a01b900460ff16600681111561155557611555611d33565b600681111561156657611566611d33565b8152600482015460208083019190915260059092015460ff161515604091820152825191830151908301516060840151608085015160a090950151939e929d50909b50995091975095509350505050565b60038033600090815260026020526040902054600160a01b900460ff1660048111156115e5576115e5611d33565b146116025760405162461bcd60e51b81526004016103bb906120b0565b600082815260036020526040902060050154829060ff166116355760405162461bcd60e51b81526004016103bb906120db565b600360008481526003602081905260409091200154600160a01b900460ff16600681111561166557611665611d33565b146116825760405162461bcd60e51b81526004016103bb9061213a565b600083815260036020818152604080842092830180546001600160a81b03199081163360ff60a01b19811691909117600160a21b17909255426004958601819055858552838720845160608101865293845283860196875293830152825460018101845592865292909420845160029092020180546001600160a01b039092166001600160a01b031983168117825593519093909284921617600160a01b83600681111561173257611732611d33565b0217905550604082015181600101555050827f2da7b23ca63c1eb969eee5fae4acb98186abecf5358b0354a82a5183ebca6b2a600460405161068e9190612162565b6000546001600160a01b031633146117d95760405162461bcd60e51b815260206004820152602260248201527f4f6e6c792061646d696e2063616e20706572666f726d2074686973206163746960448201526137b760f11b60648201526084016103bb565b60008260048111156117ed576117ed611d33565b036118295760405162461bcd60e51b815260206004820152600c60248201526b496e76616c696420726f6c6560a01b60448201526064016103bb565b6001600160a01b0383166000908152600260208190526040909120015460ff16156118965760405162461bcd60e51b815260206004820152601760248201527f5573657220616c7265616479207265676973746572656400000000000000000060448201526064016103bb565b6040518060800160405280846001600160a01b031681526020018360048111156118c2576118c2611d33565b8152602080820184905260016040928301526001600160a01b03808716600090815260028352929092208351815493166001600160a01b0319841681178255918401519092909183916001600160a81b03191617600160a01b83600481111561192d5761192d611d33565b0217905550604082015160018201906119469082612220565b50606091909101516002909101805460ff19169115159190911790556040516001600160a01b038416907f04221ffa167b8d0a33647e46ee4f6728f4fe3651e4d56715ed0941b12046147b9061068e908590859061230a565b60018033600090815260026020526040902054600160a01b900460ff1660048111156119cd576119cd611d33565b146119ea5760405162461bcd60e51b81526004016103bb906120b0565b600083815260036020526040902060050154839060ff16611a1d5760405162461bcd60e51b81526004016103bb906120db565b6000848152600360208190526040909120015484906001600160a01b03163314611a595760405162461bcd60e51b81526004016103bb9061210b565b60026001600160a01b038516600090815260026020526040902054600160a01b900460ff166004811115611a8f57611a8f611d33565b14611adc5760405162461bcd60e51b815260206004820152601f60248201527f526563697069656e74206d7573742062652061206469737472696275746f720060448201526064016103bb565b6104c2858560015b60008381526003602081905260409091200180546001600160a01b03811691839160ff60a01b1916600160a01b836006811115611b2357611b23611d33565b02179055506000848152600360209081526040808320426004918201558252918290208251606081019093526001600160a01b038416835291908101846006811115611b7157611b71611d33565b8152426020918201528254600181018455600093845292819020825160029094020180546001600160a01b039094166001600160a01b031985168117825591830151929390929183916001600160a81b03191617600160a01b836006811115611bdc57611bdc611d33565b0217905550604082015181600101555050837fb8ec5bed6096f539515867ed6d75eac9421558314f8dcb1349f7c60978cad298828585604051611c2193929190612332565b60405180910390a250505050565b80356001600160a01b0381168114611c4657600080fd5b919050565b60008060408385031215611c5e57600080fd5b82359150611c6e60208401611c2f565b90509250929050565b600060208284031215611c8957600080fd5b5035919050565b600060208284031215611ca257600080fd5b813560078110611cb157600080fd5b9392505050565b6000815180845260005b81811015611cde57602081850181015186830182015201611cc2565b506000602082860101526020601f19601f83011685010191505092915050565b602081526000611cb16020830184611cb8565b60008060408385031215611d2457600080fd5b50508035926020909101359150565b634e487b7160e01b600052602160045260246000fd5b60078110611d5957611d59611d33565b9052565b6001600160a01b038416815260608101611d7a6020830185611d49565b826040830152949350505050565b803560058110611c4657600080fd5b600060208284031215611da957600080fd5b611cb182611d88565b602080825282518282018190526000919060409081850190868401855b82811015611e1057815180516001600160a01b0316855286810151611df688870182611d49565b508501518486015260609093019290850190600101611dcf565b5091979650505050505050565b600060208284031215611e2f57600080fd5b611cb182611c2f565b60058110611d5957611d59611d33565b6001600160a01b0385168152611e616020820185611e38565b608060408201526000611e776080830185611cb8565b9050821515606083015295945050505050565b87815260e060208201526000611ea360e0830189611cb8565b8281036040840152611eb58189611cb8565b6001600160a01b03881660608501529150611ed590506080830186611d49565b8360a083015282151560c083015298975050505050505050565b634e487b7160e01b600052604160045260246000fd5b600082601f830112611f1657600080fd5b813567ffffffffffffffff80821115611f3157611f31611eef565b604051601f8301601f19908116603f01168101908282118183101715611f5957611f59611eef565b81604052838152866020858801011115611f7257600080fd5b836020870160208301376000602085830101528094505050505092915050565b60008060408385031215611fa557600080fd5b823567ffffffffffffffff80821115611fbd57600080fd5b611fc986838701611f05565b93506020850135915080821115611fdf57600080fd5b50611fec85828601611f05565b9150509250929050565b86815260c06020820152600061200f60c0830188611cb8565b82810360408401526120218188611cb8565b6001600160a01b0387166060850152915061204190506080830185611d49565b8260a0830152979650505050505050565b60008060006060848603121561206757600080fd5b61207084611c2f565b925061207e60208501611d88565b9150604084013567ffffffffffffffff81111561209a57600080fd5b6120a686828701611f05565b9150509250925092565b602080825260119082015270556e617574686f72697a656420726f6c6560781b604082015260600190565b602080825260169082015275141c9bd91d58dd08191bd95cc81b9bdd08195e1a5cdd60521b604082015260600190565b6020808252601590820152742737ba103a343290383937b23ab1ba1037bbb732b960591b604082015260600190565b6020808252600e908201526d496e76616c69642073746174757360901b604082015260600190565b602081016121708284611d49565b92915050565b600181811c9082168061218a57607f821691505b602082108103610b0557634e487b7160e01b600052602260045260246000fd5b6000600182016121ca57634e487b7160e01b600052601160045260246000fd5b5060010190565b601f82111561221b57600081815260208120601f850160051c810160208610156121f85750805b601f850160051c820191505b8181101561221757828155600101612204565b5050505b505050565b815167ffffffffffffffff81111561223a5761223a611eef565b61224e816122488454612176565b846121d1565b602080601f831160018114612283576000841561226b5750858301515b600019600386901b1c1916600185901b178555612217565b600085815260208120601f198616915b828110156122b257888601518255948401946001909101908401612293565b50858210156122d05787850151600019600388901b60f8161c191681555b5050505050600190811b01905550565b6040815260006122f36040830185611cb8565b905060018060a01b03831660208301529392505050565b6123148184611e38565b60406020820152600061232a6040830184611cb8565b949350505050565b6001600160a01b038481168252831660208201526060810161232a6040830184611d4956fea2646970667358221220de56385a1e0bbde63ee8eb9ef8ea84e14f40ac6b26c69351ce89bd52af6d785d64736f6c63430008130033",
  "linkReferences": {},
  "deployedLinkReferences": {}
}